:020000040000FA
:10000000600400206D020000710200007302000015
:100010007502000077020000790200000000000075
:100020000000000000000000000000007B02000053
:100030007D020000000000007F020000810200003D
:10004000830200008302000083020000830200009C
:10005000830200008302000083020000830200008C
:10006000830200008302000083020000830200007C
:10007000830200008302000083020000830200006C
:10008000830200008302000083020000830200005C
:10009000830200008302000083020000830200004C
:1000A000830200008302000083020000830200003C
:1000B000830200008302000083020000830200002C
:1000C000830200008302000083020000830200001C
:1000D000830200008302000083020000830200000C
:1000E00083020000830200008302000083020000FC
:1000F00083020000830200008302000083020000EC
:1001000083020000830200008302000083020000DB
:1001100083020000830200008302000083020000CB
:1001200083020000830200008302000083020000BB
:1001300083020000830200008302000083020000AB
:1001400000000000000000000000000000000000AF
:10015000830200008302000083020000830200008B
:10016000000000000000000000000000000000008F
:10017000000000000000000000000000000000007F
:10018000000000000000000000000000000000006F
:10019000000000000000000000000000000000005F
:1001A000000000000000000000000000000000004F
:1001B000830200008302000083020000830200002B
:1001C000830200008302000083020000830200001B
:1001D000830200008302000083020000830200000B
:1001E00083020000830200008302000083020000FB
:1001F00083020000830200008302000083020000EB
:10020000830200008302000083020000000000005F
:1002100083020000830200008302000083020000CA
:1002200083020000830200008302000083020000BA
:1002300083020000830200008302000083020000AA
:10024000830200008302000083020000830200009A
:10025000830200008302000083020000830200008A
:1002600083020000830200008302000000F00AB84D
:10027000FEE7FEE7FEE7FEE7FEE7FEE7FEE7FEE756
:10028000FEE7FEE700F002F800F02CF80AA090E884
:10029000000C82448344AAF10107DA4501D100F041
:1002A00021F8AFF2090EBAE80F0013F0010F18BFE2
:1002B000FB1A43F001031847D0040000E0040000DB
:1002C0000023002400250026103A28BF78C1FBD85F
:1002D000520728BF30C148BF0B6070471FB51FBD14
:1002E00010B510BD00F029F81146FFF7F7FF00F038
:1002F0004DF900F047F803B4FFF7F2FF03BC00F03C
:100300004FF8000072B6704762B67047EFF3108086
:1003100072B6704780F31088704730BF704702484C
:100320000249014A024B704760000020600400202F
:1003300060000020704770477047754600F02CF849
:10034000AE4605006946534620F00700854618B0C2
:1003500020B5FFF7E4FFBDE820404FF000064FF066
:1003600000074FF000084FF0000BAC46ACE8C009A6
:10037000ACE8C009ACE8C009ACE8C00921F007014D
:100380008D46704710B50446AFF300802046BDE8A7
:100390001040FFF7B0BF0000004870470000002089
:1003A00001491820ABBEFEE726000200704700009E
:1003B0004EF20811C4F20F01086840F00200086014
:1003C000FFE74EF20810C4F20F00006800F00200D0
:1003D000022801D0FFE7F4E745F22851C4F20001FA
:1003E000086820F03F00086045F22C51C4F200017B
:1003F000086800F07F40086045F20041C4F2000147
:10040000086840F03F00086045F22041C4F2000156
:10041000086820F03F00086045F21C51C4F200015A
:10042000086840F03F000860704700004EF2081175
:10043000C4F20F01086840F030000860FFE74EF298
:100440000810C4F20F00006800F01000102801D05E
:10045000FFE7F4E744F22851C4F20201086820F0F3
:100460000300086044F22C51C4F20201086820F035
:10047000FF00086044F20041C4F20201086820F065
:100480000300086044F22041C4F20201086820F031
:100490000300086044F21C51C4F20201086840F0F5
:1004A0000300086045F22851C4F20201086820F0F8
:1004B000FF00086045F22C51C4F20201086820F0E8
:1004C000FF00086045F20041C4F20201086820F014
:1004D000FF00086045F22041C4F20201086820F0E4
:1004E000FF00086045F21C51C4F20201086840F0A8
:1004F000FF000860704700004EF21001CEF20001CC
:10050000002008604EF21403CEF200036FF07F4229
:100510001A604EF21802CEF2000210600520086048
:100520007047000083B002904EF21800CEF2000037
:1005300000680090FFE700984EF21801CEF200012B
:100540000968401A20F07F400190FFE70198029966
:100550008842F0D9FFE703B07047000080B582B051
:10056000019000200090FFE70098019988420BD28B
:10057000FFE740F60010C0F23D00FFF7D3FFFFE7B2
:10058000009801300090EFE702B080BD80B588B0E0
:10059000002004900790FFF7AFFFFFF709FF45F237
:1005A000FC01C4F2000103910C200860FFF73EFF3C
:1005B000039A0498FF2111600590FFE705982C210C
:1005C0000291484340F22862C0F2000201921058A2
:1005D00045F2FC03C4F200031860059800FB0120FB
:1005E000406845F21803C4F202031860059800FB46
:1005F00001208068FFF7B2FF019A029944F20C00D3
:10060000C4F20200006845F20403C4F202031B684E
:1006100018430690059800FB0120069900EB810025
:10062000C0680590CAE700000C000000020000004E
:1006300004000000000000000000000001000000B5
:1006400001000000020000000200000002000000A3
:100650000200000014000000020000000100000081
:10066000030000000300000003000000030000007E
:10067000030000000300000003000000030000006E
:100680001400000002000000010000000200000051
:100690000200000002000000020000000200000052
:1006A0000200000002000000020000002100000023
:1006B000020000000300000004000000040000002D
:1006C0000300000004000000050000000500000019
:1006D00005000000050000002200000002000000EC
:1006E0000100000000000000000000000000000009
:1006F00000000000000000000000000000000000FA
:100700000000000021000000400000000400000084
:1007100007000000070000000600000006000000BF
:1007200005000000070000000500000007000000B1
:10073000220000000600000001000000030000008D
:10074000030000000300000003000000030000009D
:10075000030000000300000003000000220000006E
:100760000600000001000000000000000000000082
:100770000000000000000000000000000000000079
:1007800000000000000000009807000000000020AA
:0807900060040000C00200003B
:040000050000026D88
:00000001FF
